:1004CF00C0F9A4B0999282F88090BFFF4079243090
:0804DF001912027800103F7FA2
:1003700012040F7F031203DC8F0AAC0AE41201B3EC
:10038000E4FBFA79FA7843120003E4FBFA797F7808
:100390004312010C1201E78E088F097D667F40121F
:0703A00004AD1202CB80CC7A
:10040F00E5A0541F4480F5A07580FFE5A0541F445C
:10041F00A0F5A0E4F580E5A0541F44C0F5A07580B9
:0D042F00FFE5A0541F44E0F5A07580FF22FA
:08043C00E493FD12048A7F0124
:100444007E00D3EF9400EE940040147D2A7C03EDEB
:0F0454001D70011CED4C70F7EF1F70E61E80E36A
:010463002276
:10048A007580FFE5A0541F44C0F5A0A807740108B1
:10049A008002C333D8FCF580E5A0541F44E0F5A0E0
:0304AA008D802220
:1002CB009004DAE493FDE4FF12048A0F120444E471
:1002DB0093FD7F0112048A120444E493FD7F021202
:1002EB00048A1F1204447F0312043C7F0412043C53
:1002FB00AE08AF097C007D6412026874DB2FF582B7
:10030B0074043EF583E493FD7F0512043FAE08AF02
:10031B00097C007D0A1202687C007D0A1202687457
:10032B00CF2DF58274043CF583E493FD7F06120414
:10033B003FAE08AF097C007D0A12026874CF2DF521
:10034B008274043CF583E493FD7F0712043FE5A020
:10035B00541F44C0F5A07580FFE5A0541F44E0F581
:05036B00A07580FF22D7
:0203DC008F0B85
:1003DE0012050F7F901203A71204FEAF0B1203A794
:1003EE001204FE12052A12050F7F911203A71204A2
:1003FE00FE1204648F0CD2001204E712052AAF0C11
:01040E0022CB
:1004AD008F0B8D0C12050F7F901203A71204FEAF58
:1004BD000B1203A71204FEAF0C1203A71204FE02C7
:0204CD00052AFE
:04051E00D2A07F05E3
:0805220000AE071FEE70F92284
:0F050F00D2A112051EC2A17F05120522C2A02291
:0C052A00C2A112051ED2A17F050205220D
:1004E700C2A0A20092A17F0512052212051EC2A07A
:0704F700D2A17F05020522DE
:1004FE0012051EA2A19200C2A07F05120522A20023
:01050E0022CA
:0203A700AD07A0
:1003A900E4FCECC39408748094805024C2A07F05B7
:1003B900120522ED30E704D2A18002C2A17F051205
:1003C9000522D2A0ED25E0FD7F051205220C80D281
:0203D900C2A0C0
:0103DB0022FF
:10046400E4FCECC3940874809480501712051EEDCC
:1004740025E0FD30A103430501C2A07F051205223A
:050484000C80DFAF0554
:010489002250
:10000300EC4D6011E8497017ED33EC3304600DE4F7
:10001300FCFFFEFD22E933E8330470F802025312B9
:10002300021E58046009E4CC2481500628500902BA
:10003300025D28400302025AC0E0EB4A7044B980D3
:1000430006D0E0FB020249EF4E701CBD8008EBFFB7
:10005300EAFEE9FD80EBE98DF0A4FEE5F00200EC99
:10006300E9CDF9EAFEEBFFEF89F0A4FCE5F0CE89D8
:10007300F0A42EFFE435F0CD89F0A42DFEE435F095
:100083008067EF4E7005BD80D780C3EF8BF0A4ACC3
:10009300F0EE8BF0A42CFCE435F0F8EF8AF0A42CFE
:1000A300E5F038FCE433CB8DF0A42CFCE5F03BF811
:1000B300EE8AF0A42CFCE5F038F8E433CF89F0A401
:1000C3002CFCE5F038CF3400CE89F0A42FFFE5F007
:1000D3003EFEE433C98DF0A42EFEE5F039CD8AF05F
:1000E300A42FFFE5F03EFEE43DFD33D0E0FB5007D7
:1000F3000BBB000F02025DEC2CFCEF33FFEE33FE73
:06010300ED33FD020235A0
:1001090002025DEC5D046005E859047003020253C4
:1001190012021E580460F6EC4860F2EC7004FDFE11
:10012900FF22C860DB2481C85009C39860025006C9
:1001390002025A9850CAF582E9294B4A7005AB82E6
:1001490002024975F0007C1A7880C3EF9BEE9AEDA4
:1001590099400DC3EF9BFFEE9AFEED99FDE842F041
:10016900DC23ACF0D0E0FFD0E0FED0E0FDAB822094
:10017900E7101BEB60BAEC2CFCEF33FFEE33FEED1E
:1001890033FD020235E803F830E705C0F075F000E9
:10019900EF2FFFEE33FEED33FD40B830E7C280AA02
:1001A90075F020800E75F010800575F0087D007ED1
:1001B900007F003392D530D5031202BDEC334010D5
:1001C900EF33FFEE33FEED33FDEC33FCD5F0ED22DA
:0E01D900E5F0247EA2D513CC92E7CDCEFF2216
:1001E700EDD2E7CD33EC3392D524814006E4FFFE10
:1001F700FDFC22FCE4CFCECDCC24E0501174FF806F
:10020700EDC3CC13CCCD13CDCE13CECF13CF04700B
:07021700F030D5DE0202BD4C
:10021E00E9D2E7C933E833F892D5EDD2E7CD33EC26
:07022E0033FC5002B2D5229F
:10023500EC30E7100FBF000C0EBE00080DBD00042A
:100245000BEB6014A2D5EB13FCED92E7FD2274FFD6
:10025500FCFDFEFF22E480F8A2D574FF13FC7D802F
:03026500E480EF43
:03000000020536C0
:0C053600787FE4F6D8FD75812002037088
:10026800BC000BBE0029EF8DF084FFADF022E4CC7A
:10027800F875F008EF2FFFEE33FEEC33FCEE9DEC43
:10028800984005FCEE9DFE0FD5F0E9E4CEFD22ED89
:10029800F8F5F0EE8420D21CFEADF075F008EF2FD3
:1002A800FFED33FD4007985006D5F0F222C398FDC4
:0502B8000FD5F0EA2261
:0E02BD00C3E49FFFE49EFEE49DFDE49CFC2252
:00000001FF
